{
  "contractName": "Bank",
  "abi": [
    {
      "constant": true,
      "inputs": [
        {
          "name": "",
          "type": "address"
        }
      ],
      "name": "accountManager",
      "outputs": [
        {
          "name": "",
          "type": "address"
        }
      ],
      "payable": false,
      "stateMutability": "view",
      "type": "function"
    },
    {
      "constant": true,
      "inputs": [],
      "name": "balance",
      "outputs": [
        {
          "name": "",
          "type": "uint256"
        }
      ],
      "payable": false,
      "stateMutability": "view",
      "type": "function"
    },
    {
      "constant": true,
      "inputs": [
        {
          "name": "",
          "type": "uint256"
        }
      ],
      "name": "depositants",
      "outputs": [
        {
          "name": "",
          "type": "address"
        }
      ],
      "payable": false,
      "stateMutability": "view",
      "type": "function"
    },
    {
      "constant": true,
      "inputs": [
        {
          "name": "",
          "type": "address"
        }
      ],
      "name": "pendingWithdrawals",
      "outputs": [
        {
          "name": "",
          "type": "uint256"
        }
      ],
      "payable": false,
      "stateMutability": "view",
      "type": "function"
    },
    {
      "constant": true,
      "inputs": [
        {
          "name": "",
          "type": "address"
        }
      ],
      "name": "deposits",
      "outputs": [
        {
          "name": "",
          "type": "uint256"
        }
      ],
      "payable": false,
      "stateMutability": "view",
      "type": "function"
    },
    {
      "inputs": [],
      "payable": false,
      "stateMutability": "nonpayable",
      "type": "constructor"
    },
    {
      "anonymous": false,
      "inputs": [
        {
          "indexed": false,
          "name": "depositant",
          "type": "address"
        },
        {
          "indexed": false,
          "name": "amount",
          "type": "uint256"
        }
      ],
      "name": "Deposit",
      "type": "event"
    },
    {
      "anonymous": false,
      "inputs": [
        {
          "indexed": false,
          "name": "depositant",
          "type": "address"
        },
        {
          "indexed": false,
          "name": "amount",
          "type": "uint256"
        }
      ],
      "name": "Withdraw",
      "type": "event"
    },
    {
      "anonymous": false,
      "inputs": [
        {
          "indexed": false,
          "name": "from",
          "type": "address"
        },
        {
          "indexed": false,
          "name": "to",
          "type": "address"
        },
        {
          "indexed": false,
          "name": "amount",
          "type": "uint256"
        }
      ],
      "name": "TransferOffered",
      "type": "event"
    },
    {
      "anonymous": false,
      "inputs": [
        {
          "indexed": false,
          "name": "receiver",
          "type": "address"
        },
        {
          "indexed": false,
          "name": "amount",
          "type": "uint256"
        }
      ],
      "name": "TransferAccepted",
      "type": "event"
    },
    {
      "constant": true,
      "inputs": [],
      "name": "depositantCount",
      "outputs": [
        {
          "name": "",
          "type": "uint256"
        }
      ],
      "payable": false,
      "stateMutability": "view",
      "type": "function"
    },
    {
      "constant": false,
      "inputs": [],
      "name": "deposit",
      "outputs": [],
      "payable": true,
      "stateMutability": "payable",
      "type": "function"
    },
    {
      "constant": false,
      "inputs": [
        {
          "name": "amount",
          "type": "uint256"
        }
      ],
      "name": "withdraw",
      "outputs": [],
      "payable": true,
      "stateMutability": "payable",
      "type": "function"
    },
    {
      "constant": false,
      "inputs": [
        {
          "name": "to",
          "type": "address"
        }
      ],
      "name": "offerTransfer",
      "outputs": [],
      "payable": true,
      "stateMutability": "payable",
      "type": "function"
    },
    {
      "constant": false,
      "inputs": [],
      "name": "acceptTransfer",
      "outputs": [],
      "payable": true,
      "stateMutability": "payable",
      "type": "function"
    },
    {
      "constant": false,
      "inputs": [
        {
          "name": "manager",
          "type": "address"
        }
      ],
      "name": "assignManager",
      "outputs": [],
      "payable": false,
      "stateMutability": "nonpayable",
      "type": "function"
    }
  ],
  "bytecode": "0x608060405234801561001057600080fd5b5060008081905550610ec7806100276000396000f3006080604052600436106100af576000357c0100000000000000000000000000000000000000000000000000000000900463ffffffff1680632d2dcc48146100b45780632e1a7d4d146100f75780634b90838c14610117578063547eeac11461019a578063b69ef8a8146101a4578063c33e7a0a146101cf578063d0e30db014610205578063d47814c01461020f578063e877212b1461023a578063f3f43703146102a7578063fc7e286d146102fe575b600080fd5b3480156100c057600080fd5b506100f5600480360381019080803573ffffffffffffffffffffffffffffffffffffffff169060200190929190505050610355565b005b610115600480360381019080803590602001909291905050506103d6565b005b34801561012357600080fd5b50610158600480360381019080803573ffffffffffffffffffffffffffffffffffffffff169060200190929190505050610659565b604051808273ffffffffffffffffffffffffffffffffffffffff1673ffffffffffffffffffffffffffffffffffffffff16815260200191505060405180910390f35b6101a261068c565b005b3480156101b057600080fd5b506101b9610817565b6040518082815260200191505060405180910390f35b610203600480360381019080803573ffffffffffffffffffffffffffffffffffffffff16906020019092919050505061081d565b005b61020d610b81565b005b34801561021b57600080fd5b50610224610deb565b6040518082815260200191505060405180910390f35b34801561024657600080fd5b5061026560048036038101908080359060200190929190505050610df8565b604051808273ffffffffffffffffffffffffffffffffffffffff1673ffffffffffffffffffffffffffffffffffffffff16815260200191505060405180910390f35b3480156102b357600080fd5b506102e8600480360381019080803573ffffffffffffffffffffffffffffffffffffffff169060200190929190505050610e36565b6040518082815260200191505060405180910390f35b34801561030a57600080fd5b5061033f600480360381019080803573ffffffffffffffffffffffffffffffffffffffff169060200190929190505050610e4e565b6040518082815260200191505060405180910390f35b80600360003373ffffffffffffffffffffffffffffffffffffffff1673ffffffffffffffffffffffffffffffffffffffff16815260200190815260200160002060006101000a81548173ffffffffffffffffffffffffffffffffffffffff021916908373ffffffffffffffffffffffffffffffffffffffff16021790555050565b80600160003373ffffffffffffffffffffffffffffffffffffffff1673ffffffffffffffffffffffffffffffffffffffff1681526020019081526020016000205481111515156104b4576040517f08c379a000000000000000000000000000000000000000000000000000000000815260040180806020018281038252602b8152602001807f596f75206861766520696e73756666696369656e742066756e647320696e207981526020017f6f7572206163636f756e7400000000000000000000000000000000000000000081525060400191505060405180910390fd5b61050682600160003373ffffffffffffffffffffffffffffffffffffffff1673ffffffffffffffffffffffffffffffffffffffff16815260200190815260200160002054610e6690919063ffffffff16565b600160003373ffffffffffffffffffffffffffffffffffffffff1673ffffffffffffffffffffffffffffffffffffffff1681526020019081526020016000208190555061055e82600054610e6690919063ffffffff16565b6000819055503373ffffffffffffffffffffffffffffffffffffffff166108fc839081150290604051600060405180830381858888f193505050501580156105aa573d6000803e3d6000fd5b507f884edad9ce6fa2440d8a54cc123490eb96d2768479d49ff9c7366125a942436433600160003373ffffffffffffffffffffffffffffffffffffffff1673ffffffffffffffffffffffffffffffffffffffff16815260200190815260200160002054604051808373ffffffffffffffffffffffffffffffffffffffff1673ffffffffffffffffffffffffffffffffffffffff1681526020018281526020019250505060405180910390a15050565b60036020528060005260406000206000915054906101000a900473ffffffffffffffffffffffffffffffffffffffff1681565b600080600260003373ffffffffffffffffffffffffffffffffffffffff1673ffffffffffffffffffffffffffffffffffffffff168152602001908152602001600020541115156106db57600080fd5b600260003373ffffffffffffffffffffffffffffffffffffffff1673ffffffffffffffffffffffffffffffffffffffff1681526020019081526020016000205490506000600260003373ffffffffffffffffffffffffffffffffffffffff1673ffffffffffffffffffffffffffffffffffffffff168152602001908152602001600020819055503373ffffffffffffffffffffffffffffffffffffffff166108fc829081150290604051600060405180830381858888f193505050501580156107a8573d6000803e3d6000fd5b507fc93ed77904a37c61aa9f7d5507fffddf14e284b09c2a5f03a78d4832e56359333382604051808373ffffffffffffffffffffffffffffffffffffffff1673ffffffffffffffffffffffffffffffffffffffff1681526020018281526020019250505060405180910390a150565b60005481565b34600160003373ffffffffffffffffffffffffffffffffffffffff1673ffffffffffffffffffffffffffffffffffffffff1681526020019081526020016000205481111515156108fb576040517f08c379a000000000000000000000000000000000000000000000000000000000815260040180806020018281038252602b8152602001807f596f75206861766520696e73756666696369656e742066756e647320696e207981526020017f6f7572206163636f756e7400000000000000000000000000000000000000000081525060400191505060405180910390fd5b600034111515610999576040517f08c379a000000000000000000000000000000000000000000000000000000000815260040180806020018281038252602e8152602001807f546865207472616e73616374696f6e2076616c7565206d75737420626520626981526020017f67676572207468616e207a65726f00000000000000000000000000000000000081525060400191505060405180910390fd5b6109eb34600160003373ffffffffffffffffffffffffffffffffffffffff1673ffffffffffffffffffffffffffffffffffffffff16815260200190815260200160002054610e6690919063ffffffff16565b600160003373ffffffffffffffffffffffffffffffffffffffff1673ffffffffffffffffffffffffffffffffffffffff16815260200190815260200160002081905550610a4334600054610e6690919063ffffffff16565b600081905550610a9b34600260008573ffffffffffffffffffffffffffffffffffffffff1673ffffffffffffffffffffffffffffffffffffffff16815260200190815260200160002054610e7f90919063ffffffff16565b600260008473ffffffffffffffffffffffffffffffffffffffff1673ffffffffffffffffffffffffffffffffffffffff168152602001908152602001600020819055507f8ee7af8a0c22ffe0b5e6ef90a913746b8b0187176b340b04265e8aaa85d124d2338334604051808473ffffffffffffffffffffffffffffffffffffffff1673ffffffffffffffffffffffffffffffffffffffff1681526020018373ffffffffffffffffffffffffffffffffffffffff1673ffffffffffffffffffffffffffffffffffffffff168152602001828152602001935050505060405180910390a15050565b600034111515610c1f576040517f08c379a000000000000000000000000000000000000000000000000000000000815260040180806020018281038252602e8152602001807f546865207472616e73616374696f6e2076616c7565206d75737420626520626981526020017f67676572207468616e207a65726f00000000000000000000000000000000000081525060400191505060405180910390fd5b6000600160003373ffffffffffffffffffffffffffffffffffffffff1673ffffffffffffffffffffffffffffffffffffffff168152602001908152602001600020541415610cce5760043390806001815401808255809150509060018203906000526020600020016000909192909190916101000a81548173ffffffffffffffffffffffffffffffffffffffff021916908373ffffffffffffffffffffffffffffffffffffffff160217905550505b610d2034600160003373ffffffffffffffffffffffffffffffffffffffff1673ffffffffffffffffffffffffffffffffffffffff16815260200190815260200160002054610e7f90919063ffffffff16565b600160003373ffffffffffffffffffffffffffffffffffffffff1673ffffffffffffffffffffffffffffffffffffffff16815260200190815260200160002081905550610d7834600054610e7f90919063ffffffff16565b6000819055507fe1fffcc4923d04b559f4d29a8bfc6cda04eb5b0d3c460751c2402c5c5cc9109c3334604051808373ffffffffffffffffffffffffffffffffffffffff1673ffffffffffffffffffffffffffffffffffffffff1681526020018281526020019250505060405180910390a1565b6000600480549050905090565b600481815481101515610e0757fe5b906000526020600020016000915054906101000a900473ffffffffffffffffffffffffffffffffffffffff1681565b60026020528060005260406000206000915090505481565b60016020528060005260406000206000915090505481565b6000828211151515610e7457fe5b818303905092915050565b60008183019050828110151515610e9257fe5b809050929150505600a165627a7a72305820c198c34b422b65198d0dc3a3f62910871683c144c6523f140199ea0743c6c5a50029",
  "source": "pragma solidity ^0.4.23;\n\nimport \"openzeppelin-solidity/contracts/math/SafeMath.sol\";\n\ncontract Bank {\n  using SafeMath for uint256;\n\n  uint256 public balance;\n  \n  mapping(address => uint256) public deposits;\n\n  mapping(address => uint256) public pendingWithdrawals;\n\n  mapping(address => address) public accountManager;\n\n  address[] public depositants;\n\n  constructor() public {\n    balance = 0;\n  }\n\n  event Deposit(address depositant, uint256 amount);\n  event Withdraw(address depositant, uint256 amount);\n  event TransferOffered(address from, address to, uint256 amount);\n  event TransferAccepted(address receiver, uint256 amount);\n\n  modifier hasBalance(uint256 amount) {\n    require(\n      amount <= deposits[msg.sender],\n      \"You have insufficient funds in your account\"\n    );\n    _;\n  }\n\n  modifier valueIsPositive() {\n    require(\n      msg.value > 0, \n      \"The transaction value must be bigger than zero\"\n    );\n    _;\n  }\n\n  modifier validTransfer() {\n    require(\n      deposits[msg.sender] >= msg.value,\n      \"You have insufficient money in your deposit to make this transfer\"\n    );\n    _;\n  }\n\n  modifier hasWithdrawals() {\n    require(pendingWithdrawals[msg.sender] > 0);\n    _;\n  }\n\n  function depositantCount() public view returns (uint) {\n    return depositants.length;\n  }\n\n  function deposit() public payable \n  valueIsPositive() {\n    if (deposits[msg.sender] == 0) {\n      depositants.push(msg.sender);\n    }\n\n    deposits[msg.sender] = deposits[msg.sender].add(msg.value);\n    balance = balance.add(msg.value);\n\n    emit Deposit(msg.sender, msg.value);\n  }\n\n  function withdraw(uint256 amount) public payable \n  hasBalance(amount) {\n    deposits[msg.sender] = deposits[msg.sender].sub(amount);\n    balance = balance.sub(amount);\n    msg.sender.transfer(amount);\n    \n    emit Withdraw(msg.sender, deposits[msg.sender]);\n  }\n\n  function offerTransfer(address to) public payable \n  hasBalance(msg.value) \n  valueIsPositive {\n    deposits[msg.sender] = deposits[msg.sender].sub(msg.value);\n    balance = balance.sub(msg.value);\n    pendingWithdrawals[to] = pendingWithdrawals[to].add(msg.value);\n\n    emit TransferOffered(msg.sender, to, msg.value);\n  }\n\n  function acceptTransfer() public payable \n  hasWithdrawals() {\n    uint amount = pendingWithdrawals[msg.sender];\n    pendingWithdrawals[msg.sender] = 0;\n    msg.sender.transfer(amount);\n\n    emit TransferAccepted(msg.sender, amount);\n  }\n\n  function assignManager(address manager) public {\n    accountManager[msg.sender] = manager;\n  }\n}\n\n",
  "sourcePath": "/Users/carlosnovaduarte/Fractal/carlos/bank-smart-contract/contracts/Bank.sol",
  "compiler": {
    "name": "solc",
    "version": "0.4.24+commit.e67f0147.Emscripten.clang"
  },
  "schemaVersion": "2.0.1",
  "updatedAt": "2018-07-17T11:50:05.507Z"
}