{
  "contractName": "Bank",
  "abi": [
    {
      "constant": true,
      "inputs": [],
      "name": "balance",
      "outputs": [
        {
          "name": "",
          "type": "uint256"
        }
      ],
      "payable": false,
      "stateMutability": "view",
      "type": "function"
    },
    {
      "constant": true,
      "inputs": [
        {
          "name": "",
          "type": "uint256"
        }
      ],
      "name": "depositants",
      "outputs": [
        {
          "name": "",
          "type": "address"
        }
      ],
      "payable": false,
      "stateMutability": "view",
      "type": "function"
    },
    {
      "constant": true,
      "inputs": [
        {
          "name": "",
          "type": "address"
        }
      ],
      "name": "deposits",
      "outputs": [
        {
          "name": "",
          "type": "uint256"
        }
      ],
      "payable": false,
      "stateMutability": "view",
      "type": "function"
    },
    {
      "inputs": [],
      "payable": false,
      "stateMutability": "nonpayable",
      "type": "constructor"
    },
    {
      "constant": false,
      "inputs": [],
      "name": "deposit",
      "outputs": [],
      "payable": true,
      "stateMutability": "payable",
      "type": "function"
    },
    {
      "constant": true,
      "inputs": [],
      "name": "depositantCount",
      "outputs": [
        {
          "name": "",
          "type": "uint256"
        }
      ],
      "payable": false,
      "stateMutability": "view",
      "type": "function"
    }
  ],
  "bytecode": "0x608060405234801561001057600080fd5b506000808190555061033e806100276000396000f30060806040526004361061006d576000357c0100000000000000000000000000000000000000000000000000000000900463ffffffff168063b69ef8a814610072578063d0e30db01461009d578063d47814c0146100a7578063e877212b146100d2578063fc7e286d1461013f575b600080fd5b34801561007e57600080fd5b50610087610196565b6040518082815260200191505060405180910390f35b6100a561019c565b005b3480156100b357600080fd5b506100bc6102af565b6040518082815260200191505060405180910390f35b3480156100de57600080fd5b506100fd600480360381019080803590602001909291905050506102bc565b604051808273ffffffffffffffffffffffffffffffffffffffff1673ffffffffffffffffffffffffffffffffffffffff16815260200191505060405180910390f35b34801561014b57600080fd5b50610180600480360381019080803573ffffffffffffffffffffffffffffffffffffffff1690602001909291905050506102fa565b6040518082815260200191505060405180910390f35b60005481565b6000341115156101ab57600080fd5b6000600160003373ffffffffffffffffffffffffffffffffffffffff1673ffffffffffffffffffffffffffffffffffffffff16815260200190815260200160002054141561025a5760023390806001815401808255809150509060018203906000526020600020016000909192909190916101000a81548173ffffffffffffffffffffffffffffffffffffffff021916908373ffffffffffffffffffffffffffffffffffffffff160217905550505b34600160003373ffffffffffffffffffffffffffffffffffffffff1673ffffffffffffffffffffffffffffffffffffffff16815260200190815260200160002081905550346000808282540192505081905550565b6000600280549050905090565b6002818154811015156102cb57fe5b906000526020600020016000915054906101000a900473ffffffffffffffffffffffffffffffffffffffff1681565b600160205280600052604060002060009150905054815600a165627a7a723058208b1c0d86ab8ff8f0234589dfd0898f87a6c295b74690980fc51afcfe948b60170029",
  "source": "pragma solidity ^0.4.23;\n\ncontract Bank {\n  uint256 public balance;\n  \n  mapping(address => uint256) public deposits;\n\n  address[] public depositants;\n\n  constructor() public {\n    balance = 0;\n  }\n\n  function deposit() public payable {\n    require(msg.value > 0);\n\n    if (deposits[msg.sender] == 0) {\n      depositants.push(msg.sender);\n    }\n\n    deposits[msg.sender] = msg.value;\n    balance += msg.value;\n  }\n\n  function depositantCount() public view returns (uint) {\n    return depositants.length;\n  }\n}\n\n",
  "sourcePath": "/Users/carlosnovaduarte/Fractal/carlos/bank-smart-contract/contracts/Bank.sol",
  "compiler": {
    "name": "solc",
    "version": "0.4.24+commit.e67f0147.Emscripten.clang"
  },
  "schemaVersion": "2.0.1",
  "updatedAt": "2018-07-09T15:36:05.164Z"
}